{
    "contractName": "Election",
    "abi": [
        {
            "inputs": [],
            "name": "Elections",
            "outputs": [],
            "stateMutability": "nonpayable",
            "type": "function"
        },
        {
            "inputs": [],
            "name": "candidate",
            "outputs": [
                {
                    "internalType": "string",
                    "name": "",
                    "type": "string"
                }
            ],
            "stateMutability": "view",
            "type": "function"
        }
    ],
    "bytecode": "608060405234801561001057600080fd5b50610256806100206000396000f3fe608060405234801561001057600080fd5b50600436106100365760003560e01c8063256db31f1461003b5780636c8381f814610045575b600080fd5b6100436100c2565b005b61004d6100f7565b6040805160208082528351818301528351919283929083019185019080838360005b8381101561008757818101518382015260200161006f565b50505050905090810190601f1680156100b45780820380516001836020036101000a031916815260200191505b509250505060405180910390f35b60408051808201909152600b8082526a43616e646964617465203160a81b60209092019182526100f491600091610185565b50565b6000805460408051602060026001851615610100026000190190941693909304601f8101849004840282018401909252818152929183018282801561017d5780601f106101525761010080835404028352916020019161017d565b820191906000526020600020905b81548152906001019060200180831161016057829003601f168201915b505050505081565b828054600181600116156101000203166002900490600052602060002090601f016020900481019282601f106101c657805160ff19168380011785556101f3565b828001600101855582156101f3579182015b828111156101f35782518255916020019190600101906101d8565b506101ff929150610203565b5090565b61021d91905b808211156101ff5760008155600101610209565b9056fea2646970667358221220268cad98a7a693aaebccd9dd908eef1ab13607247a2beee4422335ef18ae4d5264736f6c63430006040033",
    "sourcePath": "/home/saiteja/Desktop/Elections/contracts/Election.sol",
    "compiler": {
        "name": "solc",
        "version": "0.6.4+commit.1dca32f3"
    },
    "functionHashes": {
        "Elections()": "256db31f",
        "candidate()": "6c8381f8"
    },
    "gasEstimates": {
        "creation": {
            "codeDepositCost": "119600",
            "executionCost": "165",
            "totalCost": "119765"
        },
        "external": {
            "Elections()": "infinite",
            "candidate()": "infinite"
        }
    }
}